:020000040000FA
:100000000A128A11F32F00308A000408840A82073A
:1000100000340034433407342434113406340934B2
:020020000034AA
:10014800831603138701080064008001840A0406EB
:10015800031900340406A9280730831603139F00E7
:1001680005148801810189010800F2007008F10076
:100178007108F3000130F302031DC328C428BE2808
:100188000130F202031DC928CA28BA2808006430C1
:10019800F0000030F100FF30F0070318F10AFF30DB
:1001A800F107700A031DDC28710A031DDC28DD280D
:1001B800CF280800831203130610861286168E3085
:1001C8000A128A118F210A128A1100300A128A1122
:1001D8008F210A128A118312031386120800F00174
:1001E800F1010130F0070318F10A0030F107710836
:1001F800803AFF008F307F02031D0429A03070026F
:10020800031C07290829F5280800F001F10101302D
:10021800F0070318F10A0030F1077108803AFF006F
:1002280080307F02031D1A2905307002031C1D2926
:100238001E290B290800F001F1010130F00703180D
:10024800F10A0030F1077108803AFF0080307F0220
:10025800031D302932307002031C33293429212927
:100268000800F200831203138516051285110A127D
:100278008A1109210A128A1183120313851572083B
:1002880088000A128A1109210A128A11831203139B
:1002980085110800F20083120313851205128511D7
:1002A8000A128A1109210A128A1183120313851569
:1002B800720888000A128A1109210A128A11831207
:1002C8000313851108008316031385018312031392
:1002D80005100A128A1109210A128A1183120313BE
:1002E8000514051530300A128A114E210A128A1196
:1002F80001300A128A114E210A128A1106300A1296
:100308008A114E210A128A110C300A128A114E21C2
:100318000A128A110800F400F201F3018312031390
:1003280006120610741C99299A299B290616740826
:10033800F0000310700CF1007108F400061401308D
:10034800F2070318F30A0030F3077308803AFF0036
:1003580080307F02031DB22908307202031CB529C0
:10036800B629922983120313061008008312031377
:100378008616BF300A128A118F210A128A11F601D5
:10038800F7010A128A1117220A128A11F500760853
:10039800203E84007508831380000130F607031897
:1003A800F70A0030F7077708803AFF0080307F02AD
:1003B800031DE02907307602031CE329E429C52937
:1003C8008312031386120800831203138616BE30A5
:1003D8000A128A118F210A128A11F501F60175088D
:1003E800013E84000A128A1103200A128A110A1295
:1003F8008A118F210A128A110130F5070318F60AAB
:100408000030F6077608803AFF0080307F02031D2F
:100418000F2A08307502031C122A132AF3298312A3
:10042800031386120800F401831603130616F2015B
:10043800F3018312031306107408F0000310700C04
:10044800F1007108F400061E2A2A2B2A302A7408A3
:100458008038F0007008F40006140130F207031821
:10046800F30A0030F3077308803AFF0080307F02F8
:10047800031D402A08307202031C432A442A1D2AFD
:100488008316031306128312031306107408080058
:10049800700871040319512A522A812AF501F50AB4
:1004A800602A01300310F00DF10DFF3E031D562A9E
:1004B8000130F4007408F507F11F632A642A552AED
:1004C80071087302031D6A2A70087202031C6D2AE0
:1004D8006E2A742A7008F2027108031CF303F302EF
:1004E80001300310F10CF00CFF3E031D752A01309A
:1004F800F502031D802A812A642A7308F100720814
:10050800F0000800F5010830F4007408F600031044
:10051800F50C83120313071083160313071000004A
:1005280000000000000000000000831603130714F9
:1005380000000000000000000000003083120313D8
:1005480007180130A90029080319AB2AAC2AAD2ADB
:10055800F5170730F4007408F00002300A128A1107
:10056800B9200A128A110130F6027608031DBD2A45
:10057800BE2A8B2A75080800F501F50AF42A8312A9
:10058800031307108316031307104630F40074088A
:10059800F00002300A128A11B9200A128A11831651
:1005A800031307140830F4007408F00002300A122C
:1005B8008A11B9200A128A1183120313071CE52A2B
:1005C800E62AE92AF501F50AEA2AF5013C30F400A1
:1005D8007408F00002300A128A11B9200A128A112E
:1005E8007508031DF82AF92AC32A0800F7000830FD
:1005F800F4007408F80077080139F4007408F6006C
:10060800831203130710831603130710000000005A
:100618000000000000007603031D132B142B172B7A
:100628008316031307140730F4007408F00002302F
:100638000A128A11B9200A128A11831603130714A1
:10064800000000007708F4000310740CF50075082A
:10065800F7000130F8027808031D332B342BFF2AEA
:100668000800FB01FC017608770403193C2B3D2B9D
:10067800742BFD01FD0A4B2B01300310F60DF70D0D
:10068800FF3E031D412B0130FA007A08FD07F71FD2
:100698004E2B4F2B402B01300310FB0DFC0DFF3E62
:1006A800031D502B77087902031D5C2B760878020E
:1006B800031C5F2B602B672B7608F8027708031C56
:1006C800F903F9027B1401300310F70CF60CFF3E16
:1006D800031D682B0130FD02031D732B742B4F2B58
:1006E8007C08F7007B08F6000800F601F31F7D2B55
:1006F8007E2B852BF209F309F20A0319F30AF60196
:10070800F60AF11F882B892B8E2BF009F109F00AC4
:100718000319F10A700871040319932B942BC32B46
:10072800F501F50AA22B01300310F00DF10DFF3E83
:10073800031D982B0130F4007408F507F11FA52B51
:10074800A62B972B71087302031DAC2B700872023D
:10075800031CAF2BB02BB62B7008F2027108031CD8
:10076800F303F30201300310F10CF00CFF3E031DFC
:10077800B72B0130F502031DC22BC32BA62B76081D
:100788000319C72BC82BCD2BF209F309F20A031959
:10079800F30A7308F1007208F000080083120313CB
:1007A8002F08303E0A128A1135210A128A11463062
:1007B800F4007408F0000A300A128A11B9200A12EB
:1007C8008A11831203132E08303E0A128A1135212A
:1007D8000A128A112E300A128A1135210A128A1138
:1007E8004630F4007408F0000A300A128A11B92061
:1007F8000A128A11831203132D08303E0A128A1135
:1008080035210A128A114630F4007408F0000A30C3
:100818000A128A11B9200A128A11831203132C08AA
:10082800303E0A128A1135210A128A114630F40024
:100838007408F0000A300A128A11B9200A128A11C3
:10084800831203132F08303EF400003003180130E0
:10085800F500333074067504031D332C342C362C04
:100868008914372C89100800F601F11F3C2C3D2C07
:10087800442CF009F109F00A0319F10AF601F60A05
:10088800F31F472C482C512CF209F309F20A0319DB
:10089800F30A0130F4007408F606F701F80170084D
:1008A80071040319582C592C902CF501F50A672C62
:1008B80001300310F00DF10DFF3E031D5D2C0130DA
:1008C800F4007408F507F11F6A2C6B2C5C2C0130BE
:1008D8000310F70DF80DFF3E031D6C2C7108730211
:1008E800031D782C70087202031C7B2C7C2C832C33
:1008F8007008F2027108031CF303F3027714013045
:100908000310F10CF00CFF3E031D842C0130F5029E
:10091800031D8F2C902C6B2C76080319942C952C86
:100928009A2CF709F809F70A0319F80A7808F10068
:100938007708F000080002308316031386000A12B5
:100948008A11E8210A128A110A128A11DE200A1273
:100958008A110A128A11B0200A128A110A128A11FF
:1009680067210A128A110A128A11A4200A128A110E
:100978000A128A11C5260A128A1154300A128A11DB
:1009880035210A128A1165300A128A1135210A1294
:100998008A116D300A128A1135210A128A117030B3
:1009A8000A128A1135210A128A113A300A128A115A
:1009B80035210A128A110A128A11D2230A128A11BF
:1009C8000A128A11BA210A128A1190300A128A115F
:1009D8004E210A128A1144300A128A1135210A124C
:1009E8008A1161300A128A1135210A128A1174306B
:1009F8000A128A1135210A128A1165300A128A11DF
:100A080035210A128A113A300A128A1135210A123E
:100A18008A1120300A128A1135210A128A110A1203
:100A28008A114A250A128A1188300A128A114E211F
:100A38000A128A1154300A128A1135210A128A11AF
:100A480069300A128A1135210A128A116D300A1288
:100A58008A1135210A128A1165300A128A11352144
:100A68000A128A113A300A128A1135210A128A1199
:100A78000A128A1101260A128A110A128A11F3200F
:100A88000A128A11AD2C0A128A1100288312031344
:100A980086184F2D502D582D2308F3007308A000F9
:100AA8002408F3007308A1002308F039F300F401C7
:100AB8007308F5007408F600750E0F39F500760E08
:100AC800F039F504760E0F39F600F030F61D0030D7
:100AD800F6047508303E0A128A1135210A128A1165
:100AE8000A128A11CB200A128A11831203132308CF
:100AF8000F39F300F4017308F5007408F60075085F
:100B0800303E0A128A1135210A128A112F300A1230
:100B18008A1135210A128A110A128A11CB200A1267
:100B28008A11831203132408F039F300F4017308BF
:100B3800F5007408F600750E0F39F500760EF039D9
:100B4800F504760E0F39F600F030F61D0030F60485
:100B58007508303E0A128A1135210A128A110A12C2
:100B68008A11CB200A128A118312031324080F3921
:100B7800F300F4017308F5007408F6007508303EB8
:100B88000A128A1135210A128A112F300A128A1183
:100B980035210A128A110A128A11CB200A128A11E7
:100BA800831203132608F039F300F4017308F500E3
:100BB8007408F6007508303E0A128A1135210A12A7
:100BC8008A110A128A11CB200A128A11831203137E
:100BD80026080F39F300F4017308F5007408F600CD
:100BE8007508303E0A128A1135210A128A110A1232
:100BF8008A11CB200A128A1108008312031386185F
:100C0800062E072E0F2E2308F3007308A0002408D1
:100C1800F3007308A1002208F039F300F401730807
:100C2800F5007408F600750E0F39F500760EF039E8
:100C3800F504760E0F39F600F030F61D0030F60494
:100C48007508303E0A128A1135210A128A110A12D1
:100C58008A11CB200A128A118312031322080F3932
:100C6800F300F4017308F5007408F6007508303EC7
:100C78000A128A1135210A128A113A300A128A1187
:100C880035210A128A110A128A11CB200A128A11F6
:100C9800831203132108F039F300F4017308F500F7
:100CA8007408F600750E0F39F500760EF039F50464
:100CB800760E0F39F600F030F61D0030F604750890
:100CC800303E0A128A1135210A128A110A128A1133
:100CD800CB200A128A118312031321080F39F3005B
:100CE800F4017308F5007408F6007508303E0A121E
:100CF8008A1135210A128A113A300A128A113521CD
:100D08000A128A110A128A11CB200A128A11831236
:100D180003132008F039F300F4017308F500740890
:100D2800F600750E0F39F500760EF039F504760EDB
:100D38000F39F600F030F61D0030F6047508303E25
:100D48000A128A1135210A128A110A128A11CB2035
:100D58000A128A118312031320080F39F300F401D1
:100D68007308F5007408F6007508303E0A128A11F7
:100D780035210A128A110A128A11CB200A128A1105
:100D880008008316031307140A128A11C0220A12D4
:100D98008A11CC300A128A11FA220A128A110A120E
:100DA8008A111F210A128A1144300A128A11FA2262
:100DB8000A128A110A128A11C0220A128A11CC3028
:100DC8000A128A11FA220A128A11BE300A128A11EC
:100DD800FA220A128A110A128A1186220A128A1122
:100DE80083120313B4003408B3000A128A1186224E
:100DF8000A128A1183120313B4003408B20083164E
:100E080003130714831203133208B40004300310C9
:100E1800B40DFF3E031D0B2F3F303405B5003308DA
:100E2800B60004300310B60CFF3E031D162F36081B
:100E38003504B7003708B1003308B4000330031095
:100E4800B40DFF3E031D232F0310340DB5003508E4
:100E5800B0000A30F0000030F1003108B400B501EC
:100E68003408F2003508F3000A128A1179230A12AD
:100E78008A11700883120313B6003608AE000A30D0
:100E8800F0000030F1003108B400B5013408F20078
:100E98003508F3000A128A1138240A128A117008D8
:100EA80083120313B6003608AF00A701A801B01FCC
:100EB8005E2F5F2F672F2708883EA7002808031892
:100EC800013E133EA800301F6A2F6B2F732F27088F
:100ED800C43EA70028080318013E093EA800B01E1A
:100EE800762F772F7F2F2708E23EA70028080318C0
:100EF800013E043EA800301E822F832F8B2F270827
:100F0800713EA70028080318013E023EA800E830F9
:100F1800F6000330F7002808F9002708F8000A123D
:100F28008A1135230A128A11760883120313B40032
:100F38003408AD006430F6000030F7002808F300EC
:100F48002708F200E830F0000330F1000A128A1195
:100F58004C220A128A117108F9007008F8000A1266
:100F68008A1135230A128A11760883120313B400F2
:100F78003408AC000A30F6000030F7002808F30007
:100F88002708F2006430F0000030F1000A128A11DC
:100F98004C220A128A117108F9007008F8000A1226
:100FA8008A1135230A128A11760883120313B400B2
:100FB8003408AB000A30F0000030F1002808F300D4
:100FC8002708F2000A128A114C220A128A117008A4
:100FD80083120313B4003408AA0000000800831326
:100FE8002030840034300A128A11A8200A128A118B
:080FF80083010A128A119F2CEB
:02400E00323F3F
:00000001FF
